{
  "_format": "hh-sol-artifact-1",
  "contractName": "DocRegistry",
  "sourceName": "contracts/DocRegistry.sol",
  "abi": [
    {
      "anonymous": false,
      "inputs": [
        {
          "indexed": true,
          "internalType": "bytes32",
          "name": "hash",
          "type": "bytes32"
        },
        {
          "indexed": false,
          "internalType": "string",
          "name": "hashString",
          "type": "string"
        },
        {
          "indexed": false,
          "internalType": "uint256",
          "name": "timestamp",
          "type": "uint256"
        },
        {
          "indexed": false,
          "internalType": "address",
          "name": "owner",
          "type": "address"
        }
      ],
      "name": "DocumentRegistered",
      "type": "event"
    },
    {
      "anonymous": false,
      "inputs": [
        {
          "indexed": true,
          "internalType": "bytes32",
          "name": "hash",
          "type": "bytes32"
        },
        {
          "indexed": false,
          "internalType": "bool",
          "name": "isValid",
          "type": "bool"
        }
      ],
      "name": "DocumentVerified",
      "type": "event"
    },
    {
      "inputs": [
        {
          "internalType": "string",
          "name": "_hash",
          "type": "string"
        }
      ],
      "name": "documentExists",
      "outputs": [
        {
          "internalType": "bool",
          "name": "",
          "type": "bool"
        }
      ],
      "stateMutability": "view",
      "type": "function"
    },
    {
      "inputs": [
        {
          "internalType": "bytes32",
          "name": "",
          "type": "bytes32"
        }
      ],
      "name": "documents",
      "outputs": [
        {
          "internalType": "string",
          "name": "hash",
          "type": "string"
        },
        {
          "internalType": "uint256",
          "name": "timestamp",
          "type": "uint256"
        },
        {
          "internalType": "address",
          "name": "owner",
          "type": "address"
        },
        {
          "internalType": "bool",
          "name": "exists",
          "type": "bool"
        }
      ],
      "stateMutability": "view",
      "type": "function"
    },
    {
      "inputs": [
        {
          "internalType": "string",
          "name": "_hash",
          "type": "string"
        }
      ],
      "name": "getDocument",
      "outputs": [
        {
          "internalType": "string",
          "name": "hash",
          "type": "string"
        },
        {
          "internalType": "uint256",
          "name": "timestamp",
          "type": "uint256"
        },
        {
          "internalType": "address",
          "name": "owner",
          "type": "address"
        },
        {
          "internalType": "bool",
          "name": "exists",
          "type": "bool"
        }
      ],
      "stateMutability": "view",
      "type": "function"
    },
    {
      "inputs": [
        {
          "internalType": "string",
          "name": "_hash",
          "type": "string"
        }
      ],
      "name": "registerDocument",
      "outputs": [],
      "stateMutability": "nonpayable",
      "type": "function"
    },
    {
      "inputs": [
        {
          "internalType": "string",
          "name": "_hash",
          "type": "string"
        }
      ],
      "name": "verifyDocument",
      "outputs": [
        {
          "internalType": "bool",
          "name": "isValid",
          "type": "bool"
        }
      ],
      "stateMutability": "view",
      "type": "function"
    }
  ],
  "bytecode": "0x608060405234801561001057600080fd5b50610eb1806100206000396000f3fe608060405234801561001057600080fd5b50600436106100575760003560e01c80632b2805db1461005c5780633026785f1461008f5780634847a470146100bf5780637ccb6a64146100db578063beee5eb71461010e575b600080fd5b61007660048036038101906100719190610789565b61013e565b60405161008694939291906108bb565b60405180910390f35b6100a960048036038101906100a49190610a3c565b610223565b6040516100b69190610a85565b60405180910390f35b6100d960048036038101906100d49190610a3c565b61027a565b005b6100f560048036038101906100f09190610a3c565b61041e565b60405161010594939291906108bb565b60405180910390f35b61012860048036038101906101239190610a3c565b6105a2565b6040516101359190610a85565b60405180910390f35b600060205280600052604060002060009150905080600001805461016190610acf565b80601f016020809104026020016040519081016040528092919081815260200182805461018d90610acf565b80156101da5780601f106101af576101008083540402835291602001916101da565b820191906000526020600020905b8154815290600101906020018083116101bd57829003601f168201915b5050505050908060010154908060020160009054906101000a900473ffffffffffffffffffffffffffffffffffffffff16908060020160149054906101000a900460ff16905084565b600080826040516020016102379190610b3c565b60405160208183030381529060405280519060200120905060008082815260200190815260200160002060020160149054906101000a900460ff16915050919050565b60008160405160200161028d9190610b3c565b60405160208183030381529060405280519060200120905060008082815260200190815260200160002060020160149054906101000a900460ff1615610308576040517f08c379a00000000000000000000000000000000000000000000000000000000081526004016102ff90610b9f565b60405180910390fd5b60405180608001604052808381526020014281526020013373ffffffffffffffffffffffffffffffffffffffff1681526020016001151581525060008083815260200190815260200160002060008201518160000190816103699190610d6b565b506020820151816001015560408201518160020160006101000a81548173ffffffffffffffffffffffffffffffffffffffff021916908373ffffffffffffffffffffffffffffffffffffffff16021790555060608201518160020160146101000a81548160ff021916908315150217905550905050807fa2f2398d78c67f477503effa1a646bb620cd70a6315e3d23996c6773f70bca5383423360405161041293929190610e3d565b60405180910390a25050565b6060600080600080856040516020016104379190610b3c565b604051602081830303815290604052805190602001209050600080600083815260200190815260200160002060405180608001604052908160008201805461047e90610acf565b80601f01602080910402602001604051908101604052809291908181526020018280546104aa90610acf565b80156104f75780601f106104cc576101008083540402835291602001916104f7565b820191906000526020600020905b8154815290600101906020018083116104da57829003601f168201915b50505050508152602001600182015481526020016002820160009054906101000a900473ffffffffffffffffffffffffffffffffffffffff1673ffffffffffffffffffffffffffffffffffffffff1673ffffffffffffffffffffffffffffffffffffffff1681526020016002820160149054906101000a900460ff16151515158152505090508060000151816020015182604001518360600151955095509550955050509193509193565b600080826040516020016105b69190610b3c565b60405160208183030381529060405280519060200120905060008060008381526020019081526020016000206040518060800160405290816000820180546105fd90610acf565b80601f016020809104026020016040519081016040528092919081815260200182805461062990610acf565b80156106765780601f1061064b57610100808354040283529160200191610676565b820191906000526020600020905b81548152906001019060200180831161065957829003601f168201915b50505050508152602001600182015481526020016002820160009054906101000a900473ffffffffffffffffffffffffffffffffffffffff1673ffffffffffffffffffffffffffffffffffffffff1673ffffffffffffffffffffffffffffffffffffffff1681526020016002820160149054906101000a900460ff161515151581525050905080606001518015610736575081816000015160405160200161071e9190610b3c565b60405160208183030381529060405280519060200120145b92505050919050565b6000604051905090565b600080fd5b600080fd5b6000819050919050565b61076681610753565b811461077157600080fd5b50565b6000813590506107838161075d565b92915050565b60006020828403121561079f5761079e610749565b5b60006107ad84828501610774565b91505092915050565b600081519050919050565b600082825260208201905092915050565b60005b838110156107f05780820151818401526020810190506107d5565b60008484015250505050565b6000601f19601f8301169050919050565b6000610818826107b6565b61082281856107c1565b93506108328185602086016107d2565b61083b816107fc565b840191505092915050565b6000819050919050565b61085981610846565b82525050565b600073ffffffffffffffffffffffffffffffffffffffff82169050919050565b600061088a8261085f565b9050919050565b61089a8161087f565b82525050565b60008115159050919050565b6108b5816108a0565b82525050565b600060808201905081810360008301526108d5818761080d565b90506108e46020830186610850565b6108f16040830185610891565b6108fe60608301846108ac565b95945050505050565b600080fd5b600080fd5b7f4e487b7100000000000000000000000000000000000000000000000000000000600052604160045260246000fd5b610949826107fc565b810181811067ffffffffffffffff8211171561096857610967610911565b5b80604052505050565b600061097b61073f565b90506109878282610940565b919050565b600067ffffffffffffffff8211156109a7576109a6610911565b5b6109b0826107fc565b9050602081019050919050565b82818337600083830152505050565b60006109df6109da8461098c565b610971565b9050828152602081018484840111156109fb576109fa61090c565b5b610a068482856109bd565b509392505050565b600082601f830112610a2357610a22610907565b5b8135610a338482602086016109cc565b91505092915050565b600060208284031215610a5257610a51610749565b5b600082013567ffffffffffffffff811115610a7057610a6f61074e565b5b610a7c84828501610a0e565b91505092915050565b6000602082019050610a9a60008301846108ac565b92915050565b7f4e487b7100000000000000000000000000000000000000000000000000000000600052602260045260246000fd5b60006002820490506001821680610ae757607f821691505b602082108103610afa57610af9610aa0565b5b50919050565b600081905092915050565b6000610b16826107b6565b610b208185610b00565b9350610b308185602086016107d2565b80840191505092915050565b6000610b488284610b0b565b915081905092915050565b7f446f63756d656e7420616c726561647920726567697374657265640000000000600082015250565b6000610b89601b836107c1565b9150610b9482610b53565b602082019050919050565b60006020820190508181036000830152610bb881610b7c565b9050919050565b60008190508160005260206000209050919050565b60006020601f8301049050919050565b600082821b905092915050565b600060088302610c217fffffffffffffffffffffffffffffffffffffffffffffffffffffffffffffffff82610be4565b610c2b8683610be4565b95508019841693508086168417925050509392505050565b6000819050919050565b6000610c68610c63610c5e84610846565b610c43565b610846565b9050919050565b6000819050919050565b610c8283610c4d565b610c96610c8e82610c6f565b848454610bf1565b825550505050565b600090565b610cab610c9e565b610cb6818484610c79565b505050565b5b81811015610cda57610ccf600082610ca3565b600181019050610cbc565b5050565b601f821115610d1f57610cf081610bbf565b610cf984610bd4565b81016020851015610d08578190505b610d1c610d1485610bd4565b830182610cbb565b50505b505050565b600082821c905092915050565b6000610d4260001984600802610d24565b1980831691505092915050565b6000610d5b8383610d31565b9150826002028217905092915050565b610d74826107b6565b67ffffffffffffffff811115610d8d57610d8c610911565b5b610d978254610acf565b610da2828285610cde565b600060209050601f831160018114610dd55760008415610dc3578287015190505b610dcd8582610d4f565b865550610e35565b601f198416610de386610bbf565b60005b82811015610e0b57848901518255600182019150602085019450602081019050610de6565b86831015610e285784890151610e24601f891682610d31565b8355505b6001600288020188555050505b505050505050565b60006060820190508181036000830152610e57818661080d565b9050610e666020830185610850565b610e736040830184610891565b94935050505056fea264697066735822122095e65d277d2db6becd252bd19dc4bbf516ec56222fd4236b11ff5c45a464aba664736f6c63430008130033",
  "linkReferences": {},
  "deployedLinkReferences": {}
}